:020000040000FA
:100000000C945C010C948D010C948D010C948D0169
:100010000C948D010C948D010C948D010C948D0128
:100020000C948D010C948D010C948D010C948D0118
:100030000C948D010C948D010C948D010C948D0108
:100040000C948D010C948D010C948D010C948D01F8
:100050000C948D010C948D010C948D010C941B1645
:100060000C948D010C948F160C9465160C948D01D4
:100070000C948D010C948D010C948D010C948D01C8
:100080000C948D010C948D010C948D010C948D01B8
:100090000C948D010C948D010C948D010C948D01A8
:1000A0000C948D010C948D010C948D010C948D0198
:1000B0000C948D010C948D010C948D010C948D0188
:1000C0000C948D010C948D010C948D010C948D0178
:1000D0000C948D010C948D010C948D010C948D0168
:1000E0000C948D010C94FA010C9431020C949B0D2C
:1000F0000C94FB020C940A170C9415020C94ED025C
:100100000C94E4010C94FD0E0C940B0B0C94110D4B
:100110000C9433030C947B0D0C9423020C94F60185
:100120000C9435020C9419020C942B020C949D0231
:100130000C94FE010C9402020C940B020C94720DB0
:100140000C94AB0D0C94DF010C9480030C9405020D
:100150000C94D9020C9427020C94C80D0C941D0227
:100160000C94070F0C94D30F0C94CA020C940F023A
:1001700063825363000108000604000100002000B0
:100180002300260029002C002F003200000100006F
:100190000301060109014500008200004000200023
:1001A000002100240027002A002D00300033000128
:1001B000010000040107010A0100002200250028B7
:1001C000002B002E00310034000201000005010860
:1001D000010B0105050505070508080808020202CC
:1001E000020A0A08080404040401010101010101D2
:1001F000010303030303030303040707070C0C0CA9
:100200000C0C0C0C0C020202020606060606060680
:10021000060B0B0B0B0B0B0B0B010210202008081D
:100220001020401020408002010201080402010158
:100230000204081020408080402010080402018041
:100240000402018040201008040201080402010198
:1002500002040810204080010204081020408000A1
:10026000000A0B02090C0D0E080703040100000030
:10027000000000000000000000000000000000007E
:10028000000000000000000000000012111000003B
:10029000000000000000000000000000000000005E
:1002A00000000000007C3C3E5E2B3D3F2F5B5D3B31
:1002B0002C2A225C00000A1711241FBECFEFD1E2C6
:1002C000DEBFCDBF00E00CBF13E0A0E0B2E0E6E08F
:1002D000FBE400E00BBF02C007900D92AE3BB107FC
:1002E000D9F721E1AEEBB3E001C01D92A633B2070E
:1002F000E1F711E0CCE5D1E000E006C0219701096B
:10030000802FFE010E941421CB35D10780E0080721
:10031000A9F70E9452170C9481250C940000CF93EA
:10032000DF932091430E2223C1F0FC012081222380
:10033000A1F0C3E4DEE0AFE3BEE09C012C5F3F4FE1
:10034000899141919D918427892339F4E217F3071C
:10035000B9F781E0DF91CF91089580E0FBCF282F9E
:1003600030E0F901E15AFD4F9491F901E75EFD4F4C
:1003700044912D523E4FF9012491222309F435C0B6
:10038000992311F191509231F8F4E92FF0E0882788
:10039000E353FE4F8F4F0C941421FE010202DF0144
:1003A000F601FA01E40105020B020F02150219021F
:1003B0001D0223022702E4012B0231023502809143
:1003C00080008F7780938000E22FF0E0EE0FFF1F18
:1003D000E754FE4FA591B4918FB7F894EC91611159
:1003E00048C040954E234C938FBF08958091800064
:1003F0008F7DE8CF80918000877FE4CF84B58F77B1
:1004000084BDE2CF84B58F7DFBCF8091B0008F7724
:100410008093B000D9CF8091B0008F7DF9CF8091CB
:1004200090008F7780939000CFCF809190008F7D48
:10043000F9CF80919000877FF5CF8091A0008F77D2
:100440008093A000C1CF8091A0008F7DF9CF8091D3
:10045000A000877FF5CF809120018F7780932001C6
:10046000B3CF809120018F7DF9CF80912001877FCC
:10047000F5CF4E2BB8CFCF93DF9390E0FC01E75E32
:10048000FD4F24918D529E4FFC0184918823D1F021
:1004900090E0880F991FFC01E156FE4FA591B491A1
:1004A000FC01E754FE4FC591D49161110EC09FB776
:1004B000F8948C91E22FE0958E238C932881E2238F
:1004C000E8839FBFDF91CF9108958FB7F894EC91A7
:1004D000E22BEC938FBFF6CF3FB7F89480913B0EA1
:1004E00090913C0EA0913D0EB0913E0E26B5A89B7A
:1004F00005C02F3F19F00196A11DB11D3FBFBA2FB6
:10050000A92F982F8827BC01CD01620F711D811D75
:10051000911D42E0660F771F881F991F4A95D1F7FA
:1005200008952FB7F8946091370E7091380E80912E
:10053000390E90913A0E2FBF0895AF92BF92CF928D
:10054000DF92EF92FF920F931F93CF93DF936C0193
:100550007B018B01040F151FEB015E01AE18BF0874
:10056000C017D10759F06991D601ED91FC91019026
:10057000F081E02DC6011995892B79F7C501DF912E
:10058000CF911F910F91FF90EF90DF90CF90BF9090
:10059000AF900895FC01538D448D252F30E0842FBA
:1005A00090E0821B930B541710F0CF96089501979B
:1005B0000895FC01918D828D981761F0A28DAE0F88
:1005C000BF2FB11D5D968C91928D9F5F9F73928F0F
:1005D00090E008958FEF9FEF0895FC01918D828D3B
:1005E000981731F0828DE80FF11D858D90E0089508
:1005F0008FEF9FEF0895FC01918D228D892F90E060
:10060000805C9F4F821B91098F73992708958AE41C
:1006100090E10E94FB0221E0892B09F420E0822F67
:100620000895FC01A48DA80FB92FB11DA35ABF4F87
:100630002C91848D90E001968F739927848FA689E1
:10064000B7892C93A089B1898C91837080648C9335
:10065000938D848D981306C00288F389E02D8081E4
:100660008F7D80830895EF92FF920F931F93CF9316
:10067000DF93EC0181E0888F9B8D8C8D98131AC0DD
:10068000E889F989808185FF15C09FB7F894EE89C4
:10069000FF896083E889F989808183708064808321
:1006A0009FBF81E090E0DF91CF911F910F91FF906C
:1006B000EF900895F62E0B8D10E00F5F1F4F0F7314
:1006C0001127E02E8C8D8E110CC00FB607FCFACFCF
:1006D000E889F989808185FFF5CFCE010E94110359
:1006E000F1CFEB8DEC0FFD2FF11DE35AFF4FF082A0
:1006F0009FB7F8940B8FEA89FB8980818062CFCF06
:10070000CF93DF93EC01888D8823B9F0AA89BB8948
:10071000E889F9898C9185FD03C0808186FD0DC033
:100720000FB607FCF7CF8C9185FFF2CF808185FF54
:10073000EDCFCE010E941103E9CFDF91CF91089553
:1007400080E090E0892B29F00E94070381110E942C
:10075000000080E090E0892B49F080E090E0892B58
:1007600029F00E94000081110E94000080E090E0CA
:10077000892B49F080E090E0892B29F00E9400004D
:1007800081110E94000080E090E0892B49F080E018
:1007900090E0892B29F00E94000081110C94000048
:1007A00008958FB7F8948091C2038FBF089561E0D8
:1007B000FC0184810E94AF018091C10381111092DC
:1007C000C10308958EBD00000DB407FEFDCF8EB5A8
:1007D00008958FEF0C94E2030F931F93CF93DF9351
:1007E000EC010E9491028B010E94E9038F3F69F0A6
:1007F0000E949102601B710B6C177D07A8F380E0CB
:10080000DF91CF911F910F91089581E0F9CF8CBDB9
:100810009DBD0895CF93DF93EC018091C1038111B9
:1008200009C081E08093C1038091E7109091E810A6
:100830000E94070460E08C81DF91CF910C94AF019E
:100840008F929F92AF92BF92FF920F931F93CF937D
:10085000DF93EC01F62E49015A018E81882389F03D
:100860008F8198859C012F5F3F4F38872F8382307F
:10087000924018F40E94E903F3CFCE010E94D703FF
:100880001E82CE010E940A048CE291E00E94EC03D9
:100890008F2D80640E94E20308E110E0D501C401BD
:1008A000002E04C0B695A795979587950A94D2F720
:1008B0000E94E20308501109083F8FEF180771F7F3
:1008C00085E9FF2021F028E087E8F2128FEF0E94EF
:1008D000E20310E00E94E9038A8787FF04C01F3FFC
:1008E00011F01F5FF7CFDF91CF911F910F91FF9014
:1008F000BF90AF909F908F900895AF92BF92CF928C
:10090000DF92EF92FF920F931F93CF93DF93EC014F
:100910006901C801820F931F8130924050F58E818A
:10092000882379F088819981AA81BB8184179507F2
:10093000A607B70731F48F819885C816D90608F045
:1009400042C0488359836A837B838B85833039F027
:1009500089E0440F551F661F771F8A95D1F79A01CA
:10096000AB0161E1CE010E942004882389F083E07D
:100970008D83CE010E94D70380E0DF91CF911F913C
:100980000F91FF90EF90DF90CF90BF90AF900895C0
:100990000E9491025B010E94E9038A878F3F69F4FC
:1009A0000E9491026A197B096D327140A0F38FE0B9
:1009B0008D83CE010E94D703DCCF8E3F89F4188649
:1009C0001F8281E08E838F8198858C159D0550F460
:1009D0000E94E9038F819885019698878F83F3CFD2
:1009E0008DE0E6CF6701E00EF11E0E94E903F601FB
:1009F00081936F01EE15FF05C1F78F819885080F70
:100A0000191F18870F838985882319F00115124053
:100A1000A0F08E81882389F08F8198859C012F5FBB
:100A20003F4F38872F838230924018F40E94E903A9
:100A3000F3CFCE010E94D7031E8281E09ECFCF92DA
:100A4000DF92EF92FF920F93CF93DF93EC01690156
:100A500082E1411551056105710599F08B8583305F
:100A600039F089E0440F551F661F771F8A95D1F72B
:100A70009A01AB0168E1CE010E942004882319F09D
:100A800084E08D832DC08EEF0E94E20376018EEF0D
:100A9000D81AF70181917F010E94E203EC14FD0452
:100AA000C1F78FEF0E94E2038FEF0E94E2030E94E2
:100AB000E9038A878F71853071F4011116C0CE0168
:100AC0000E94D70381E0DF91CF910F91FF90EF90CB
:100AD000DF90CF90089581E18D83CE010E94D703EE
:100AE000CE010E94D70380E0EECF88E592E00E941D
:100AF000EC03811102C085E1C4CF20E030E0A90100
:100B00006DE0CE010E942004882311F084E1B9CF6A
:100B10000E94E9038111FACFD2CF0F934091C30312
:100B20005091C4036091C5037091C60341155105EE
:100B30006105710599F0082F28E43EE08091481086
:100B4000909149100E941F05882349F01092C30319
:100B50001092C4031092C5031092C60381E00F9156
:100B600008950F93CF93C82F8091470E811105C030
:100B7000C1E08C2FCF910F91089540913002509198
:100B8000310260913202709133020C2F28E43EE072
:100B900080914810909149100E941F05811102C058
:100BA000C0E0E7CFCC2321F381E00E948D058823AC
:100BB000B9F31092470EDDCF8F929F92AF92BF9202
:100BC000EF92FF920F931F93CF934B015C01C42FC1
:100BD0008091300290913102A0913202B0913302A3
:100BE00088159905AA05BB0551F181E00E94B10560
:100BF00081110BC080E0CF911F910F91FF90EF907A
:100C0000BF90AF909F908F90089588E4E82E8EE07B
:100C1000F82E00E012E030E020E0B501A401809160
:100C20004810909149100E947D04882319F3809206
:100C3000300290923102A0923202B092330240917F
:100C4000470E4C2B4093470E81E0D5CF8F929F9259
:100C5000AF92BF92CF92DF92EF92FF92CF9329EEA5
:100C600030E13093491020934810882309F46DC077
:100C700040E060E070E0CB010E94DC0581110BC018
:100C800080E0CF91FF90EF90DF90CF90BF90AF903A
:100C90009F908F900895809106108F7789F78091AB
:100CA000121090911310A0911410B0911510843669
:100CB0009105A105B10520F3C0900E10D0900F1042
:100CC000E0901010F0901110C114D104E104F1046F
:100CD000B9F240E0C701B6010E94DC05882381F229
:100CE0008091530E9091540E8115924049F6A09137
:100CF000580EAA2329F26091560E7091570E611575
:100D0000710509F4BDCF2091550E222309F4B8CF07
:100D1000A09307112093F91090E080E030E0E1E02B
:100D2000F0E0C82FAF01082E02C0440F551F0A94EF
:100D3000E2F72417350769F041E0480F0196893042
:100D4000910579F7409302119BCFC12CD12C7601EC
:100D5000C0CF8093021120915E0E30915F0E50E063
:100D600040E02115310541F420916C0E30916D0E5B
:100D700040916E0E50916F0E2093FA103093FB103D
:100D80004093FC105093FD1046015701860E971EAC
:100D9000A11CB11C8092081190920911A0920A1115
:100DA000B0920B11E091590EF0915A0EF0930E1182
:100DB000E0930D11B0E00E941C21DC01CB01880DF5
:100DC000991DAA1DBB1D80930F1190931011A09324
:100DD0001111B093121125E0EE0FFF1F2A95E1F7D4
:100DE000E150FE4FEF2FFF27E6958E0F9F1FA11DAD
:100DF000B11D8093031190930411A0930511B0933A
:100E0000061180905B0E90905C0EB12CA12C811489
:100E1000910441F48090680E9090690EA0906A0E43
:100E2000B0906B0EC81AD90AEA0AFB0AC80CD91C82
:100E3000EA1CFB1C04C0F694E794D794C794CA95A7
:100E4000D2F7C092FE10D092FF10E0920011F09203
:100E5000011185EFC8168FE0D806E104F10428F4EB
:100E60008CE080930C1181E00CCF80E125EFC2165D
:100E70002FEFD206E104F104A0F38091740E90915B
:100E8000750EA091760EB091770E80930F1190930E
:100E90001011A0931111B093121180E2E2CF4F9282
:100EA0005F926F927F928F929F92AF92BF92CF92FA
:100EB000DF92EF92FF920F931F93CF93DF93EC019A
:100EC000423051056105710590F480E0DF91CF91CA
:100ED0001F910F91FF90EF90DF90CF90BF90AF9058
:100EE0009F908F907F906F905F904F90089589852D
:100EF0009A85AB85BC850196A11DB11D8417950708
:100F0000A607B70710F3CB88DC88ED88FE888F89A9
:100F1000803109F042C0BB27A72F962F852F4801AB
:100F200059012A013B01C80ED91EEA1EFB1E809101
:100F3000300290913102A0913202B0913302C81672
:100F4000D906EA06FB0699F58F898031C1F5B30110
:100F5000A201552766277727440F551F485B514F3D
:100F6000FA01918280828091470E81608093470EC2
:100F70008A89823080F08D819E81AF81B8858C0D09
:100F80009D1DAE1DBF1D8093C3039093C403A0930A
:100F9000C503B093C60381E099CFDB01CA01E7E046
:100FA000B695A79597958795EA95D1F7B8CF40E084
:100FB000C701B6010E94DC058111C6CF86CFB301FF
:100FC000A2014F77552766277727440F551F440FF7
:100FD000551F485B514FFA0180829182A282B382F1
:100FE000C2CF8F929F92AF92BF92CF92DF92EF9239
:100FF000FF920F931F93CF93DF93FC01818592851E
:10100000A385B4850196A11DB11D84179507A60778
:10101000B70770F480E0DF91CF911F910F91FF909F
:10102000EF90DF90CF90BF90AF909F908F900895FA
:1010300083889488A588B6888789803189F5BB27FD
:10104000A72F962F852FE9016A017B018F01BC0133
:10105000CD01680D791D8A1D9B1D809030029090F6
:101060003102A0903202B090330286169706A8068D
:10107000B90601F5F8018789803111F5DD24EE24E8
:10108000FF24F601EE0FFF1FE85BF14F8081918195
:10109000B0E0A0E088839983AA83BB8381E0BBCFC3
:1010A000DB01CA01C7E0B695A79597958795CA95C4
:1010B000D1F7C9CF40E00E94DC058111DBCFAACF78
:1010C000E894C7F8DD24EE24FF24F601EE0FFF1F9D
:1010D000EE0FFF1FE85BF14F80819181A281B38108
:1010E000BF70D8CF4F925F926F927F92AF92BF92B4
:1010F000CF92DF92EF92FF920F931F93CF93DF93E4
:1011000000D01F92CDB7DEB78C0149835A836B8321
:101110007C835901C12CD12C7601412C82E0582EC0
:10112000612C712C49815A816B817C819E012F5FDA
:101130003F4FC8010E94F107882339F1F8018585E6
:10114000A301920104C0220F331F441F551F8A952B
:10115000D2F7DA01C901C80ED91EEA1EFB1E498169
:101160005A816B817C818789803111F188EF9FEFF3
:10117000AFEFBFE0481759076A077B0798F2F50100
:10118000C082D182E282F38281E00F900F900F90B3
:101190000F90DF91CF911F910F91FF90EF90DF9013
:1011A000CF90BF90AF907F906F905F904F900895D9
:1011B00088EF9FEFA0E0B0E0DDCFCF93DF93FC019D
:1011C0002581222321F080E0DF91CF910895EC0169
:1011D00080910C11803159F582E08583178A108E39
:1011E000118E128E80910D1190910E11B0E0A0E041
:1011F00025E0880F991FAA1FBB1F2A95D1F7838B63
:10120000948BA58BB68B85EF90E19C8F8B8F81E0C3
:101210008C831E821F82188619861A861B861C865E
:101220001D861E861F86188A198A1A8ACDCF80329B
:1012300051F683E0858340910F1150911011609118
:10124000111170911211478B508F618F728F9F0116
:101250002D5E3F4F85EF90E10E9472088111D3CF40
:10126000B2CF8F929F92AF92BF92CF92DF92EF92C6
:10127000FF920F931F93CF93DF93EC018D81811128
:101280000EC080E0DF91CF911F910F91FF90EF9002
:10129000DF90CF90BF90AF909F908F9008950B8973
:1012A0001C892D893E89041715072607370748F33F
:1012B0004A015B01823031F48A869B86AC86BD860A
:1012C00081E0E0CF81149104A104B10449F41E82AD
:1012D0001F82188619861A861B861C861D86F0CFEB
:1012E0000A851B852C853D85EB8DFC8D858590E0E1
:1012F0000996B901A8014150510961097109082EE7
:1013000004C076956795579547950A94D2F775016D
:101310006401E1E0CE1AD108E108F10804C0F694B6
:10132000E794D794C7948A95D2F7C416D506E606F3
:10133000F70620F0012B022B032B11F58F89988DD6
:10134000A98DBA8D8E839F83A887B9878E010A5F86
:101350001F4FC114D104E104F10409F4ADCF4E8153
:101360005F816885798598018B8D9C8D0E94F1073E
:1013700091E0C91AD108E108F1088111EACF81CFC3
:10138000C41AD50AE60AF70AE1CF3F924F925F925C
:101390006F927F928F929F92AF92BF92CF92DF9285
:1013A000EF92FF920F931F93CF93DF93CDB7DEB7EA
:1013B0002C970FB6F894DEBF0FBECDBF5C01DC01E9
:1013C0005B968D909C905C9716964D905D906D907D
:1013D0007C901997411451046104710409F468C0A8
:1013E000BFEF4B1A5B0A6B0A7B0A312CF401818533
:1013F0009285A385B4859C01AD012F5F3F4F4F4F70
:101400005F4F29873A874B875C87730162011D8292
:101410001E821F821886F40181859285A385B4857A
:101420002D813E814F815885281739074A075B0770
:1014300008F056C089859A85AB85BC858C159D05BD
:10144000AE05BF0550F482E0C82ED12CE12CF12C62
:1014500092E0492E512C612C712C9E012F5F3F4F41
:10146000B701A601C4010E94F1078823C9F189814F
:101470009A81AB81BC81892B8A2B8B2B09F12601A8
:1014800037019FEF491A590A690A790A2D813E816D
:101490004F8158852F5F3F4F4F4F5F4F2D833E83C6
:1014A0004F8358873FEFC31AD30AE30AF30AB3CF37
:1014B000F40140805180628073803324339496CF4E
:1014C000C414D504E604F70409F70FEF1FEF2FEF5C
:1014D0003FE0B701A601C4010E944F07811119C066
:1014E00080E02C960FB6F894DEBF0FBECDBFDF9123
:1014F000CF911F910F91FF90EF90DF90CF90BF9011
:10150000AF909F908F907F906F905F904F903F90A3
:101510000895D50116964D915D916D917C91199725
:10152000411551056105710539F097018601C40126
:101530000E944F078823A1F2D5011696CD92DD9225
:10154000ED92FC921997332051F0D701C601019614
:10155000A11DB11DF40180839183A283B383F501A2
:101560008789908DA18DB28D892B8A2B8B2B39F495
:101570008481C78AD08EE18EF28E80688483F501E3
:1015800084818062848381E0ACCF1F93CF93DF930B
:10159000FC0125812223D1F1162FEC01848187FFE4
:1015A0002AC0668577858089918941E00E94DC05A3
:1015B000882361F1EA8980E2E89FF0011124E85B69
:1015C000F14F309719F18D81823040F48B899C89DD
:1015D000AD89BE89848F958FA68FB78F8F89988D9F
:1015E000938F828F8F89988DA98DBA8DB58BA48B9F
:1015F0008C818F778C83111103C08C818F7E8C83BB
:10160000812FDF91CF911F910C94B10580E0DF9184
:10161000CF911F910895FF920F931F93CF93DF9364
:10162000EC018D81813041F090E080E0DF91CF913D
:101630001F910F91FF9008958C8181FFF5CF82FD5E
:101640001BC00091481010914910C8010E940A0463
:101650000E94E903F82EC8010E94D7038FEFF81209
:10166000E3CF8C8185FF1BC060E0CE010E94C50ADC
:101670008C818F7D8C83D8CF4B895C896D897E89E5
:101680008A859B85AC85BD8584179507A607B70716
:10169000C1F2CE010E9431098111D3CFC5CF409153
:1016A000C3035091C4036091C5037091C603452BD9
:1016B000462B472B21F080E00E948D05B5CF80613D
:1016C0008C832A853B85317080E092E0821B930BEE
:1016D000ADCFCF93DF93EC0161E00E94C50A882370
:1016E00011F01D8281E0DF91CF9108952F923F92FA
:1016F0004F925F926F927F928F929F92AF92BF9222
:10170000CF92DF92EF92FF920F931F93CF93DF93CD
:1017100000D01F921F92CDB7DEB77C015B01342E43
:101720005D83DC0115968C911597813009F0CEC050
:1017300014962C9021FECAC022FCB4C0C32CDD80BC
:1017400022947FE027222094B22DB1702B2ED70156
:101750001A964D915D916D917C911D97C114D104A4
:1017600009F428C15B968D919C915C97FC01748073
:101770007A948A019B0169E036952795179507951C
:101780006A95D1F770228A011170711020C001157D
:101790001105E9F416964D915D916D917C91199723
:1017A000411551056105710509F099C057968D9154
:1017B0009D910D90BC91A02D0097A105B10509F058
:1017C000B0C0C7010E94C509882309F47FC080E02A
:1017D00092E0801B910B46018C159D0508F44C018D
:1017E000D7015B964D915C915C9716968D919D917A
:1017F0000D90BC91A02D0297A109B109FA01258590
:1018000004C0880F991FAA1FBB1F2A95D2F74685CF
:10181000578560897189840F951FA61FB71F9C018A
:10182000AD01270D311D411D511D29013A018114C2
:1018300032E0930609F07BC0809130029091310232
:10184000A0913202B091330284159505A605B70523
:1018500059F48FEF9FEFDC018093300290933102B7
:10186000A0933202B0933302022D9501B301A2017D
:1018700080914810909149100E941F05882331F1F2
:101880009EEFB91AC818D908F70182859385A485F7
:10189000B585880D991DA11DB11D82879387A487E9
:1018A000B58755CFF7014389548965897689828543
:1018B0009385A485B585481759076A077B0709F4FE
:1018C0003DCFC7010E943109811138CF81E090E0FE
:1018D000D70113969C938E93129780E007C09E01C8
:1018E0002F5F3F4F0E94F107811102C090E079C045
:1018F00089819A81AB81BC81F701238D348DF901F7
:10190000278948EF5FEF60E070E0203121F048EF79
:101910005FEF6FEF7FE084179507A607B70708F022
:1019200050CFF70186839783A087B18750CF0115E9
:10193000110599F5D7011A964D915D916D917C91A4
:101940001D9753968D919D910D90BC91A02D481798
:1019500059076A077B0708F181E00E94B1058823D7
:1019600009F4B4CF409230025092310260923202B8
:10197000709233028091470E81608093470EC801B8
:10198000885B914FD5019C01280D391DFC012E1754
:101990003F0759F04D914193FACF41E0C301B201A5
:1019A0000E94DC058111EBCF91CF281B390BA20ED1
:1019B000B31E68CFF70183899489A589B6898417F6
:1019C0009507A607B70738F48481438B548B658B42
:1019D000768B80688483F701848183FD1AC0832D10
:1019E0009D810F900F900F900F900F90DF91CF91EE
:1019F0001F910F91FF90EF90DF90CF90BF90AF902D
:101A00009F908F907F906F905F904F903F902F901E
:101A1000089561E0C7010E94C50A882309F456CFE2
:101A2000DECFCF93DF931F92CDB7DEB7698341E05E
:101A300050E0BE016F5F7F4F0E94760B0F90DF91E9
:101A4000CF910895FC01DB0112968D919C91139723
:101A50009383828388E692E09183808314968C91AD
:101A60001497848315968C911597858316964D91BE
:101A70005D916D917C91199746835783608771873B
:101A80001A964D915D916D917C911D974287538778
:101A9000648775871E964D915D916D917C915197EC
:101AA00046875787608B718B52968C915297828BA9
:101AB00053964D915D916D917C915697438B548BCC
:101AC000658B768B57964D915D916D917C915A9770
:101AD000478B508F618F728F5B968D919C91948F05
:101AE000838F0895FC01818D928D009719F061E03C
:101AF0000C94C50A0895DC015996ED91FC9130973C
:101B0000B9F083899489A589B6894285538564850E
:101B10007585841B950BA60BB70B811520E89207E2
:101B2000A105B10538F08FEF9FE7A0E0B0E0089580
:101B300090E080E00895DC0159968D919C9100978A
:101B400039F0DC01ED91FC910480F581E02D1994D0
:101B500090E080E00895CF93DF93EC01E98DFA8D5A
:101B6000309749F481E090E09B838A8390E080E0A5
:101B7000DF91CF91089513821282898D9A8D0E94F0
:101B8000760BE98DFA8D22813381232B59F7F0CF23
:101B9000CF93DF931F92CDB7DEB76983DC01ED9160
:101BA000FC910280F381E02D41E050E0BE016F5FC7
:101BB0007F4F19950F90DF91CF9108952F923F920B
:101BC0004F925F926F927F928F929F92AF92BF924D
:101BD000CF92DF92EF92FF920F931F93CF93DF93F9
:101BE00000D0CDB7DEB7FC018581811118C08FEF21
:101BF0009FEF0F900F900F90DF91CF911F910F915A
:101C0000FF90EF90DF90CF90BF90AF909F908F901C
:101C10007F906F905F904F903F902F9008958481B8
:101C200080FFE5CF438954896589768982859385CC
:101C3000A485B585312C212C481759076A077B07E5
:101C400019F022242394312C6F012101CE01019639
:101C50003C01DF011696BB83AA834114510409F4A9
:101C6000C5C0F60142855385648575854A01F1E05A
:101C70009F22D6015B968D919C915C978A019B0176
:101C8000E9E03695279517950795EA95D1F71596CA
:101C9000EC91E230E9F5FC01628D738D848D958DB8
:101CA000600F711F821F931FA12C22E0B22EA81873
:101CB000B9084A145B0408F45201F601248126FD98
:101CC00004C0A114F2E0BF0671F40091300210913B
:101CD000310220913202309133020617170728078C
:101CE000390709F05EC040E00E94DC05882309F452
:101CF0007ECFC401885B914FD3019C012A0D3B1D0F
:101D0000FC012E173F0709F46CC041914D93F9CFA8
:101D1000DC011496BC90BA94B0228114910479F439
:101D2000B1100DC0452B462B472B69F5F60187896D
:101D3000908DA18DB28D86839783A087B187D601C0
:101D40005B96ED91FC915C9716966D917D918D91CE
:101D50009C9119976250710981099109258504C0E8
:101D6000660F771F881F991F2A95D2F7068517855A
:101D700020893189600F711F821F931F6B0D711DA8
:101D8000811D911D91CFD60116964D915D916D915A
:101D90007C9119972A813B810E94F1078111CFCF55
:101DA00026CF730185019401AB01BC0180914810DD
:101DB000909149100E947D04882309F418CF6A0C81
:101DC0007B1CF60182859385A485B5858A0D9B1DB4
:101DD000A11DB11D82879387A487B5874A185B0828
:101DE0003CCF281B390B620E731EEBCF2A9423289D
:101DF00009F0FDCE898190E0FCCEFC01818D928DB1
:101E0000009711F00C94DE0D8FEF9FEF08950F9364
:101E10001F93CF93DF93EC01898D9A8D10E000E042
:101E2000009799F00E94DE0D8C010F3F100769F0BA
:101E3000898D9A8DFC014285538564857585415055
:101E40005109610971090E943109C801DF91CF91DF
:101E50001F910F910895809128049091290498274B
:101E60008927982744972091460430E044E035952F
:101E700027954A95E1F7220F331F220F331F821B4C
:101E8000930B97FF02C090E080E0089520913C04FE
:101E900030913A0430933C0420933A0420913D045D
:101EA00030913B0430933D0420933B04E8E1F4E09F
:101EB00021A5820F911D25A585A7662381F021A765
:101EC000892F9927319724E0E431F20789F710929E
:101ED0004A0410924B0480E580934604089511A6AD
:101EE000EFCF0F931F93CF93DF9370E0685E7B4F2C
:101EF0008A01075F1F4F213029F0223031F48A0117
:101F00000250110930E020E003C000E010E0980129
:101F1000EB01FA01E230F10558F0A991B991BA2725
:101F2000AB27BA270A0F1B1F211D311D3297F2CF95
:101F3000FA01EE7F6E0F7F1F4E175F0769F0FB01FE
:101F4000408150E070E060E0762F652F542F4427E9
:101F5000040F151F261F371FA90166277727411574
:101F600051056105710519F022273327F1CF00953E
:101F70001095E82FF0E0E85EFB4F10830183DF91BE
:101F8000CF911F910F910895E8E1F4E0108E118E2A
:101F900080E4848B158A868B20E044E150E06EE07B
:101FA00088E10C94710F08958EBD0DB407FEFDCF2E
:101FB000089561E08091C8030E94AF01789408956C
:101FC000F89460E08091C8030C94AF010F931F93C5
:101FD000CF93DF93EC018B010E94E00F2097B9F0C3
:101FE0008AE30E94D40F1EBCF801CE01019739F09C
:101FF0000DB407FEFDCF2EB51EBC2193F7CF219760
:10200000C00FD11F0DB407FEFDCF8EB58883DF91C1
:10201000CF911F910F910C94D90F1F93CF93DF9302
:10202000182FC62FD42F0E94E00F8C2F8F71812B79
:102030000E94D40F8D2F0E94D40FDF91CF911F915A
:102040000C94D90FCF93C82FC0768091C0038C1702
:1020500099F043E06FE180EA0E940D10C093C00345
:102060004C2F50E085E0559547958A95E1F76FE153
:1020700080E8CF910C940D10CF910895CF93DF930A
:10208000C82FD62F0E9422104D2F6C2F80E4DF9195
:10209000CF910C940D10CF93DF93C82FD72F0E94B0
:1020A0003E106D2F81E08C0FDF91CF910C943E108C
:1020B000CF93C82F0E9422100E94E00F8C2F8F71A7
:1020C0000E94D40F80E00E94D40FC7FF03C080E0BD
:1020D0000E94D40FCEB50E94D90F8C2FCF910895B6
:1020E000CF93DF93EC0140E86FE180E80E940D1090
:1020F00040E86FE180EA0E940D104AE06CE180EA5E
:102100000E940D1060E07CE082E00E944B10BE0156
:10211000745F86E00E944B1040E060E08AE70E9416
:102120000D100E94E00F2097B1F08AE70E94D40FB3
:10213000809118048EBDE9E1F4E0C85EDB4FEC1736
:10214000FD0731F081910DB407FEFDCF8EBDF7CFB5
:102150000DB407FEFDCF0E94D90F48E06FE180E883
:102160000E940D10D0E0C0E08CE10E9458108A70EF
:1021700029F42196C83E83E0D807B1F78CE10E948C
:10218000581081FD03C0C83ED34039F448E06FE1E8
:1021900080EADF91CF910C940D10DF91CF910895DB
:1021A0000F931F93CF93DF938C018896C8E1D4E0FF
:1021B000988B898B0E94C40F1AAA1BAAA801445E9F
:1021C0005F4F22E06AE182E30E94710FC801C69668
:1021D000DF91CF911F910F910C947010CF93DF93EB
:1021E000EB01682F84ED0E943E10BE0186ED0E9437
:1021F0004B108AEE0E94581080FDFBCFDF91CF91EB
:102200000895CF92DF92EF92FF920F931F9386343F
:10221000910568F120913B04233449F5C0904604B0
:10222000D0904704E0904804F09049040091DA030C
:102230001091DB032091DC033091DD03C016D10641
:10224000E206F306A1F4E2E3F5E0885E9B4F9F010E
:102250002E5F3F4F41815081553319F452816517EC
:1022600071F0F901E40FF11DE817F90780F380E040
:102270001F910F91FF90EF90DF90CF90089581E034
:10228000F7CFE091BE03F091BF039F012F5F3F4F57
:102290003093BF032093BE0380830895FF920F9372
:1022A0001F93CF93DF93162FF42E052F0E94411119
:1022B000812F0E944111CF2DD02F115020F08991F4
:1022C0000E944111FACFDF91CF911F910F91FF90A2
:1022D0000895FC0101900020E9F73197AF01481BF8
:1022E000590BBC018AE490E10C949D02CF93DF93DB
:1022F0000E946911EC0188EA92E00E9469118C0F3A
:102300009D1FDF91CF9108950F931F93CF93DF937C
:10231000EC0180E2689FF0011124E85BF14F6A8BC9
:102320008091300290913102A0913202B09133023B
:102330008E879F87A88BB98B0489158930E020E0B0
:102340009801112700270F8B188F298F3A8F828DC4
:10235000938DB0E0A0E0AC01BD01402B512B622B6E
:10236000732B4F8B588F698F7A8F83858871A9F46F
:10237000848D958DA68DB78D8B8B9C8BAD8BBE8BF5
:1023800081E08D8381E08C831E821F8218861986EE
:102390001A861B861C861D8603C0803131F080E0C2
:1023A000DF91CF911F910F9108959E012D5E3F4FB8
:1023B0008B8D9C8D0E947208882389F384E0E1CF85
:1023C000AF92BF92CF92DF92EF92FF920F931F9343
:1023D000CF93DF9300D000D000D01F921F92CDB7D3
:1023E000DEB76C01FE013196CE010C967F0120E232
:1023F0002193E817F907E1F7DA0120E037E09D9132
:10240000B92E9923A9F19E32B9F43A3091F480E0C3
:102410002B960FB6F894DEBF0FBECDBFDF91CF91E4
:102420001F910F91FF90EF90DF90CF90BF90AF90F2
:10243000089528E03AE0E3CFE5EAF2E084918823CA
:1024400021F031969813FACFE2CF321700F38FEDD7
:10245000890F8E35E0F68FE9890F8A3118F440EE46
:10246000B42EB90EF701E20FF11DB0822F5FC7CF76
:102470008981803261F28B01FB01838D948DF6019D
:10248000948F838FFB011682178210861186128625
:10249000138614861586F80182859385A485B585F3
:1024A000438954896589768984179507A607B707F4
:1024B00008F0ADCF25E0B695A795979587952A9515
:1024C000D1F7F82FFF70AF2EF8018581823008F424
:1024D0009ECFC8010E94DE0D97FD99CFF80182853D
:1024E0009385A485B5854F96A11DB11D82879387DD
:1024F000A487B587F0E2AF9EB0011124685B714FED
:102500006115710509F483CFFB018081882309F1EE
:10251000853E19F4B11032C01EC04BE050E0C70137
:102520000E946F22892B09F0B6CF6A2DC6012B9627
:102530000FB6F894DEBF0FBECDBFDF91CF911F91D4
:102540000F91FF90EF90DF90CF90BF90AF900C94E1
:102550008411B1105CCFF601A28A80913002909173
:102560003102A0913202B091330286879787A08B07
:10257000B18BFB018081882309F449CFBB24B3943C
:102580008ACFDC0196E0FB0101900D929A95E1F76C
:102590000895CF93DF93EB0144E050E0BC0184E366
:1025A00094E00E946F22892B49F46EE274E0CE0120
:1025B0000E94C11281E0DF91CF91089580E0FBCFAE
:1025C000BC0188E194E00E94C1126BEE73E08EE1E1
:1025D00094E00C94C112DC0194E0FB0101900D9297
:1025E0009A95E1F708950F931F93CF938C018CE494
:1025F00092E00E94E012E8E1F4E088E08487C6E01F
:10260000C58748E050E064E771E086E294E00E940C
:10261000C61FE8E3F4E0DF011D92CA95E9F76BEE0F
:1026200073E08EE294E00E94C112B8018EE394E060
:102630000E94EB1263E47EE084E394E00E94EB12DC
:102640008AE290E0CF911F910F910C9470108EE16F
:1026500094E00E94E01262E374E086E394E00E945A
:10266000EB1263E47EE082E394E00E94EB120C94B0
:10267000C40F262F206120934704643021F0009777
:1026800011F481E090E061E00E94460F109228046E
:1026900088E2809329040E94271384E080934804F1
:1026A0001092490422E04CE150E06AE182E30E948A
:1026B000710F86E390E00C947010CF93DF93EC01E0
:1026C00060E08091F5039091F6030E94391389E14F
:1026D00080934704CE01DF91CF910C94D010CF931B
:1026E000DF93EB010E94E012BE0186E394E00E94BA
:1026F000EB1263E47EE082E394E0DF91CF910C94EF
:10270000EB12EF92FF920F931F93CF93DF938C0105
:10271000E8E1F4E086E191E0DF019C011D922150A7
:102720003040E1F78091EA03CCE4D2E0833011F449
:10273000C5EDD3E0CE010E948F01BE01882309F4CC
:10274000ACC087EF93E00E946F138881807F803E4A
:1027500091F088819981AA81BB818F3F9F4FAF4FB4
:10276000BF4F49F044E050E0BE0181EF93E00E948A
:102770006F22892B31F46CE472E088E194E00E94CE
:10278000C11288E0809324041092250449E050E0AF
:1027900066E971E086E294E00E94C61F1092280468
:1027A00081E180932F0410923C0483E480933D04E4
:1027B00010923A0484E480933B0410923E041092F9
:1027C0004004109241046CE472E088E194E00E94BD
:1027D000C11281E0809342048093430486E0809399
:1027E00044048091DA039091DB03A091DC03B09163
:1027F000DD038093460490934704A0934804B0936C
:102800004904C091EA03C33031F463E47EE08EE40E
:1028100094E00E94EB126BEE73E08EE594E00E9470
:10282000C1128EE295E09093BF038093BE03E0E770
:10283000F1E084910E944111E1E7F1E084910E946E
:102840004111E2E7F1E084910E944111E3E7F1E0F8
:1028500084910E94411185E30E94411181E00E9410
:10286000411183E0C11101C081E00E9441118DE35B
:102870000E94411187E00E94411181E00E944111B4
:102880008BEEE82E83E0F82EC7E0C15049F0D70167
:102890008D917D010E944111F8CF8DEF93E053CFD0
:1028A00080910002882371F060E072E0FB010190EA
:1028B0000020E9F7BF016150724040E052E08CE037
:1028C0000E944E110115110559F0A80164E082E340
:1028D0000E944E1145ED53E064E086E30E944E11E4
:1028E00087E30E94411183E00E94411181E00E9430
:1028F000411183E00E94411186E00E9441118FEF57
:102900000E944111C091BE03D091BF03C254D44074
:10291000CE014C9690932804809329040E94C40F02
:10292000CE01089690933E0480933F04AE01405F31
:102930005F4F21E06AE188E20E94710FCE018A9622
:10294000DF91CF911F910F91FF90EF900C94701039
:10295000EF92FF920F931F93CF93DF93EC017B01D4
:102960008A011B821A8288EE93E0A0E0B0E08C839B
:102970009D83AE83BF838EE392E0998388838DE14C
:1029800090E00E944A219A8F898F009779F02DE17B
:10299000F701DC0101900D922A95E1F74CE050E03F
:1029A000B801CE010C960E949C22188EDF91CF9127
:1029B0001F910F91FF90EF9008952F923F924F92A9
:1029C0005F926F927F928F929F92AF92BF92CF92BF
:1029D000DF92EF92FF920F931F93CF93DF93CDB7C8
:1029E000DEB7C257D1090FB6F894DEBF0FBECDBF18
:1029F0005C011B0119A218A288E692E09F8F8E8FBE
:102A00001BA21C821B829A8389831E826E018EE127
:102A1000C80ED11CC6010E94DD088501FE01319659
:102A20007F0136012F016FE270E0C8010E947C2215
:102A3000009709F45BC0F80120812F3269F40F5F21
:102A40001F4F9E2D8F2D7301692E782E962D872D69
:102A50003701E92EF82EE7CF801B8D3008F08CE08F
:102A6000882E912CA401B801CE01885A9F4F0E9454
:102A70009C22E8E5F0E0EC0FFD1FE80DF91D108247
:102A8000C7010E94690BF7018581882301F11EAE01
:102A90001DAE88E692E09CAF8BAF21961FAE2197CA
:102AA00010E000E00A0D1B1DF8018081811126C095
:102AB000BE01655C7F4FC2010E94220D40E752E0DB
:102AC000B201CE01885A9F4F0E94A8143EC0AE01A9
:102AD000485A5F4FB301C7010E94E0118823B9F241
:102AE000080D191DC3010E94690BB0CF0A191B09FB
:102AF000B301CE01CB960E94220DD4CF19A218A209
:102B000088E692E09F8F8E8F1BA221968FAD219732
:102B1000811142C06C961FAE1EAE6C9788EE93E09A
:102B2000A0E0B0E0A0968CAF9DAFAEAFBFAFA097D6
:102B30008EE392E06A969FAF8EAF6A97E3961FAEE0
:102B40001EAEE397A5961FAEA597E396EEADFFAD3B
:102B5000E397309719F08581811132C090E080E0D1
:102B60000E945D13CE58DF4F0FB6F894DEBF0FBE44
:102B7000CDBFDF91CF911F910F91FF90EF90DF902C
:102B8000CF90BF90AF909F908F907F906F905F900D
:102B90004F903F902F900895A801BE01655C7F4F34
:102BA000C6010E94E011882309F4B4CFCE01CB9670
:102BB0000E94690BB601C2010E94220DA80180CFBC
:102BC0003F922F9282E792E09F938F938EE494E05E
:102BD0009F938F930E94AB228C01025B1B4F0F903F
:102BE0000F900F900F900F900F90CE01885A9F4F2B
:102BF0000E947B0D892B49F0CE01885A9F4F0E947D
:102C0000FD0EF80181938F01F0CFE3968EAD9FAD5D
:102C1000E397009761F00E94690BE3968EAD9FAD3C
:102C2000E3970E94E621E3961FAE1EAEE397C8012C
:102C30008E54944095CF1F920F920FB60F9211248D
:102C40002F933F938F939F93AF93BF938091370EB2
:102C50009091380EA091390EB0913A0E3091360E07
:102C600023E0230F2D3758F50196A11DB11D2093A8
:102C7000360E8093370E9093380EA093390EB09392
:102C80003A0E80913B0E90913C0EA0913D0EB0917A
:102C90003E0E0196A11DB11D80933B0E90933C0EFC
:102CA000A0933D0EB0933E0EBF91AF919F918F9137
:102CB0003F912F910F900FBE0F901F90189526E80F
:102CC000230F0296A11DB11DD2CF1F920F920FB6F6
:102CD0000F9211240BB60F922F933F934F935F9354
:102CE0006F937F938F939F93AF93BF93EF93FF93D4
:102CF0008AE490E10E941103FF91EF91BF91AF919F
:102D00009F918F917F916F915F914F913F912F9103
:102D10000F900BBE0F900FBE0F901F9018951F9233
:102D20000F920FB60F9211240BB60F922F938F9321
:102D30009F93EF93FF93E0915A10F0915B10808185
:102D4000E0916010F091611082FD1DC09081809132
:102D500063108F5F8F7320916410821741F0E091B0
:102D60006310F0E0E65BFF4E958F80936310FF9158
:102D7000EF919F918F912F910F900BBE0F900FBEEF
:102D80000F901F9018958081F2CFCF92DF92EF9233
:102D9000FF920F931F93E82FF92F05C001501109DF
:102DA0002109310961F1908196239417B9F305C087
:102DB000015011092109310911F1908196239413D1
:102DC000F7CFC12CD12CE12CF12C0AC08FEFC81AFF
:102DD000D80AE80AF80A0C151D052E053F0579F0FA
:102DE00080818623841791F36C2D7D2D8E2D9F2D50
:102DF0001F910F91FF90EF90DF90CF90089560E0CA
:102E000070E080E090E01F910F91FF90EF90DF90D5
:102E1000CF900895EAE4F0E11382128288EE93E005
:102E2000A0E0B0E084839583A683B78386E592E033
:102E30009183808385EC90E09587848784EC90E093
:102E40009787868780EC90E0918B808B81EC90E077
:102E5000938B828B82EC90E0958B848B86EC90E058
:102E6000978B868B118E128E138E148EE7EEF0E107
:102E700080E580831182E9EEF0E1158216821186E9
:102E8000138682E090E0A0E0B0E084879587A68773
:102E9000B78713A215A614A688E692E093A782A787
:102EA00017A60895CF93DF9300D000D0CDB7DEB73B
:102EB000789484B5826084BD84B5816084BD85B515
:102EC000826085BD85B5816085BD80916E00816021
:102ED00080936E00109281008091810082608093C7
:102EE00081008091810081608093810080918000C9
:102EF0008160809380008091B10084608093B100F4
:102F00008091B00081608093B000809191008260D8
:102F100080939100809191008160809391008091D5
:102F200090008160809390008091A10082608093E6
:102F3000A1008091A10081608093A1008091A000F8
:102F400081608093A00080912101826080932101A3
:102F50008091210181608093210180912001816015
:102F60008093200180917A00846080937A00809120
:102F70007A00826080937A0080917A0081608093E9
:102F80007A0080917A00806880937A001092C10064
:102F9000E0915A10F0915B1082E08083E09156102E
:102FA000F09157101082E0915810F09159108FEC69
:102FB000808310926210E0915E10F0915F1086E0C5
:102FC0008083E0915C10F0915D108081806180834E
:102FD000E0915C10F0915D10808188608083E091C9
:102FE0005C10F0915D10808180688083E0915C10BE
:102FF000F0915D1080818F7D808361E083E00E948D
:103000003B0260E082E00E943B0261E085E30E94B7
:103010003B0261E085E30E94AF0161E084E20E942F
:103020003B0261E084E20E94AF0161E085E30E941F
:103030003B0261E085E30E94AF018DEA92E00E94CD
:10304000691180911811882321F083E191E10E9498
:10305000690B1092F4101092F2101092EF1010926F
:10306000EE1084E28093ED100E9491028B0161E0EA
:103070008091ED100E943B0261E08091ED100E9472
:10308000AF01FFB6F8948091C703811127C0E8E033
:10309000F2E08491EEE4F2E09491E82FF0E0EE0F9C
:1030A000FF1FE156FE4FA591B491EC91E92321F465
:1030B00061E085E30E94AF0161E085E30E943B028D
:1030C0008CB580618CBD8CB580648CBD61E084E37F
:1030D0000E943B0261E083E30E943B028091C703B0
:1030E0008F5F8093C703FFBE82E58093E710109245
:1030F000E8108091E7109091E8100E9407047AE0B0
:10310000F72E8FEF0E94E203FA94F110FACF89EEC6
:1031100090E10E940A0420E030E0A90160E089EE1D
:1031200090E10E942004F82E8093F31021E0821792
:1031300099F00E949102601B710B613D774058F33A
:1031400081E08093EE1089EE90E10E94D7038CEB32
:1031500092E00E947611FFCF2AEA31E040E050E091
:1031600068E089EE90E10E94200482FF2AC0F0927C
:10317000F4108091F410C12CD12CE12C50E4F52EE8
:10318000823019F0C12CD12C760120E030E0A90169
:1031900067E389EE90E10E942004A701960169E2AD
:1031A00089EE90E10E9420048093F3108823D1F0EF
:1031B0000E949102601B710B613D774030F388E003
:1031C000C0CF64E0F62E0E94E9038093F310FA94D6
:1031D000F110F9CF8A3A11F082E0B3CF82E0809308
:1031E000F410C7CF8091F4108230D1F420E030E0A9
:1031F000A9016AE389EE90E10E942004882311F07E
:1032000086E09FCF0E94E903807C803C19F483E034
:103210008093F4100E94E9030E94E9030E94E903ED
:1032200089EE90E10E94D70380E58093E710109229
:10323000E81081E00E942606882369F183E191E18C
:103240000E94DD08882309F482CF89EB92E00E9476
:1032500076111092170487E390E0C12CD12C7601EF
:10326000C3940097F9F0FC0133E0F595E7953A95A2
:10327000E1F7E753FC4F282F2770B701A60104C0E0
:10328000440F551F661F771F2A95D2F72081242BE4
:1032900020830197E6CF80E00E942606882309F468
:1032A00056CFCCCF68E272E08BEE93E00E94C11261
:1032B00084EC99E09093D1038093D00385E38093CD
:1032C000C8030CB406FC24C061E00E943B0261E02C
:1032D00085E30E94AF0161E083E30E943B0261E06D
:1032E00084E30E943B0260E082E30E943B0261E0D3
:1032F00083E30E94AF0160E083E30E94AF0160E0DE
:1033000084E30E94AF0180E58CBD8DB581608DBDE9
:1033100061E08091C8030E943B020E94D90F4FEFE9
:1033200060E08FEF0E940D100E946C026B017C0127
:1033300022E0822E912CA12CB12C0E946C026C19DF
:103340007D098E099F09683E734081059105A8F3A8
:10335000A8EECA0EA3E0DA1EE11CF11C8A948928AB
:103360008A288B2829F0812C912C54018394E5CF55
:103370000E94E00F8DE10E94D40F80E00E94D40FE4
:103380001EB50E94D90F10FFF3CF70E060E088E017
:103390000E944B1070E060E08CE00E944B106FEFD9
:1033A0007BE08AE00E944B1060E07CE084E00E94B9
:1033B0004B106FEF71E186E00E944B1066E774E0FE
:1033C00084E10E94EE1061EB88E30E943E106FE3FF
:1033D00070E388E20E944B1069EF77EF80E30E9470
:1033E0004B1061E080EC0E943E1042E362EC80E80A
:1033F0000E940D1062E17CE086EC0E944B1062E1BD
:1034000084EC0E943E106CED75E08AEC0E944B103B
:103410006091EB0384EE0E943E106091EC0385EE18
:103420000E943E106091ED0382EE0E943E1060917A
:10343000EE0383EE0E943E106091EF0380EE0E9447
:103440003E106091F00381EE0E943E1060E071E05A
:1034500080E10E94EE108FE10E94221040EC6BE1AF
:1034600080E80E940D1044E06FE180E80E940D109A
:1034700082E70E9458101092170464E272E083E41D
:103480009EE00E94EB12109215041092140481E049
:103490008093160460E272E080E194E00E94EB12F7
:1034A000E3E4FEE02FE33EE041EF53E09191D901E8
:1034B0008D919D018095892BDA018D93AD01BEE040
:1034C000E734FB0799F781EC92E00E94761113E054
:1034D000612E712C05ED402E01E0502E84E1C82EA6
:1034E000D12C0E9491020091320E1091330E209146
:1034F000340E3091350E601B710B820B930B683EBE
:1035000073408105910508F472C00E949102609396
:10351000320E7093330E8093340E9093350E60E02C
:1035200083E00E94AF01C3010197F1F761E083E0FE
:103530000E94AF0183E290E00197F1F760E083E041
:103540000E94AF01EBE1F2E06491F2018491E82F77
:10355000F0E0EE0FFF1FE458FE4F8591949100E3D9
:1035600015E720E030E0462F0E94C5166115710571
:103570008105910509F475C16F5F7F4F8F4F9F4F94
:103580009F70611571058105910509F46AC10E945A
:10359000072026E933E44BE05DE30E946B2020E046
:1035A00030E040E05FE30E946B200E94CF1F6093F9
:1035B0002E0E70932F0E8093300E9093310E20912B
:1035C0002C0E30912D0EF901EE0FFF1FEE0FFF1F95
:1035D000E452F24F6083718382839383C901019621
:1035E000B6010E94002190932D0E80932C0E8091A5
:1035F000D403882379F06091D2037091D3036115CD
:10360000710509F032C16FEF7BE08CE00E944B1036
:103610001092D40389E30E94581010E000E0882340
:10362000C9F16091D2037091D30380E00E944B10E6
:10363000BE016F5F7F4F86E090E00E94E60F8981B8
:103640009A819093D3038093D2038D819E818C01C4
:103650000078112787FF12C08B819C81049700910D
:10366000D0031091D103015011098017910708F47C
:103670008C0168E174E0C8010E94E60FF801E85E81
:10368000FB4F108281E08093D40340E46EE180E838
:103690000E940D1080911704882369F08091EA033D
:1036A000823009F4EBC008F0E3C0882309F46FC14D
:1036B000813009F48BC10115110509F016C2809102
:1036C0001604857029F18091140490911504892BBA
:1036D000F9F461E184ED0E943E1061E082ED0E9408
:1036E0003E108AEE0E94581080FDFBCF60E082ED14
:1036F0000E943E1089ED0E94581082FF09C080E1AF
:1037000094E00E94F312809116048860809316045E
:103710008091140490911504019690931504809360
:10372000140480910F04813009F06EC0809116045A
:1037300081FF6AC082E080930F0480912F028F5F27
:1037400080932F02182F1F7185E094E00E948F0153
:1037500065E074E0882309F4C5C187EF93E00E9417
:103760006F1308E0009324041092250449E050E010
:1037700066E971E086E294E00E94C61F8CE28093C5
:10378000290486E080932F040E94C40F10923C0409
:1037900010923D048BE080933A0410933B04EEE3D7
:1037A000F4E0DF011D920A95E9F780912E028093E3
:1037B00040048D5F80932E0280E68093460482E071
:1037C0008093470493E09093480410924904109228
:1037D0004A0410924B0410924C0410924D048093B2
:1037E0004E0494E090934F048093500486E28093BB
:1037F000510422E040E250E06AE182E30E94710F4E
:103800008AE390E00E9470108BE094E00E948F01A8
:10381000882379F080910A0481110BC080910904FA
:10382000811107C08BE094E00E94F31281E0809345
:10383000090485E094E00E948F01882379F080914B
:10384000040481110BC080910304811107C085E03D
:1038500094E00E94F31281E0809303040E94A0038D
:1038600040CE6FEF7FEFCB01A2CE61507109CDCE7C
:10387000833009F457C0843009F01DCF65E0C801DA
:103880000E940111882309F4CAC08091D9038111D3
:1038900008C088E30E945810682F6E7F88E30E945A
:1038A0003E1062E574E083E49EE00E94EB12E2E3E6
:1038B000F5E0C801885E9B4F4C017F0192E0E90E64
:1038C000F11C31808081863009F4FBC008F0BEC055
:1038D000813009F4ECC0833009F4EFC0F701E30D47
:1038E000F11DE815F90548F30E9491026093E20387
:1038F0007093E3038093E4039093E50380911004B5
:10390000882361F0109215041092140481E08093D2
:10391000160460E174E0CB010E94EB1283E0809317
:10392000EA03C9CE8090E6039090E703A090E803F5
:10393000B090E903FFEF8F169F06AF06BF0609F4AC
:10394000BACE0E9491022091E2033091E3034091AC
:10395000E4035091E503621B730B840B950B681510
:1039600079058A059B0508F4A6CE83E49EE00E94B3
:10397000811384E08093EA030E9491026093DE0346
:103980007093DF038093E0039093E10394CE0E9451
:1039900091026093DA037093DB038093DC039093CE
:1039A000DD03E3E4FEE084E0DF011D928A95E9F7A0
:1039B00090E080E00E94811388E30E945810682FF5
:1039C000616088E30E943E1081E0D4CF62E0C801CC
:1039D0000E940111882319F162E574E0CE0101967D
:1039E0000E94EB12E2E3F5E0C801885E9B4FBF0145
:1039F0006E5F7F4F21813081363351F485ED93E046
:103A00000E94EB12CE0101960E94811382E0B2CF98
:103A1000FB01E20FF11DE817F90748F3F3CF0E940D
:103A200091022091DE033091DF034091E003509139
:103A3000E103621B730B840B950B613177428105A7
:103A4000910508F438CE1092EA0335CE8A3331F06E
:103A50008F3F09F449CF833309F040CF1092E6033A
:103A60001092E7031092E8031092E903F701C701EF
:103A7000049620E030E0A9016191542F432F322FAA
:103A80002227260F311D411D511D8E179F07A1F7BB
:103A90002F3FAFEF3A074A075A07B9F42093E603DE
:103AA0003093E7034093E8035093E90317CFB7013E
:103AB0008FE39EE00E94EB1211CFB70180E194E00A
:103AC000F9CFB7018BE094E0F5CFA8EEB3E00E9408
:103AD0001C216093E6037093E7038093E8039093BF
:103AE000E903FCCE8DEF93E03ACE0932110508F4DC
:103AF000B5CE80912404883009F0B0CE80912504A1
:103B0000863009F0FBC144E050E063E47EE08EE3E0
:103B100094E00E946F22892B09F0A0CE80912D04A1
:103B2000813029F58EE194E00E94E01210922C047D
:103B300082E080932D046EE274E088E394E00E94BA
:103B4000C1126BEE73E08EE294E00E94C11264E356
:103B500074E08EE394E00E94EB1263E47EE084E381
:103B600094E00E94EB128AE290E00E947010809133
:103B7000160483FF0DC010912D04123049F46DEF2F
:103B800073E080E194E00E94C91281111093160441
:103B900080910A04811111C080910904882369F081
:103BA00067EF73E08BE094E00E94C912882329F04C
:103BB00081E080930A041092090480910404811129
:103BC0004DCE80910304882309F448CE67EF73E05B
:103BD00085E094E00E94C912882309F43FCE81E079
:103BE000809304041092030439CE0633110508F4BF
:103BF00035CE863009F032CE80913C048B3009F00E
:103C00004BC044E050E065E074E082E394E00E9441
:103C10006F22892B09F022CE1091470485E012FD16
:103C200033C00E942B0F20910F04223001F5212F69
:103C30002271223181F460E090E080E00E9439132B
:103C400088E18093470483E080930F0490E080E054
:103C50000E94D01003CE21E020930F04019614FFA0
:103C600002C090E080E064E00E943913F7CD253077
:103C700009F4F4CD10FF0BC0233009F4EFCD69E057
:103C800001960E94391386E080930F04E7CD60E02F
:103C9000009709F4E3CDE8CF8111E0CD80913D0498
:103CA000803509F0DBCDF0904704F1FE39C0109269
:103CB00028048CE2809329040E94271382E18093D8
:103CC000470460E081E090E00E94460F10923E04BD
:103CD00010923F0480912E02809340041092410480
:103CE0008D5F80932E0282E080934E0484E0809367
:103CF0004F0485E0809350041092510490E6909315
:103D000046048093480488E78093490422E040E217
:103D100050E06AE182E30E94710F8AE390E033C1D0
:103D2000F4FE9CCD0E942B0F9093F6038093F50335
:103D3000892B09F484C0E0904604F12C24E0F5942A
:103D4000E7942A95E1F7EE0CFF1CEE0CFF1CB2E2A3
:103D5000EB0EF11C0E151F0508F480CDF701E85E8F
:103D6000FB4F7F0149E050E064ED72E0CF010E941B
:103D70008E228C01892B09F068C08091310E8F93BF
:103D80008091300E8F9380912F0E8F9380912E0E05
:103D90008F938EED92E09F938F938EE494E09F93A8
:103DA0008F930E94AB227C010FB6F894DEBF0FBE4A
:103DB000CDBF98EF892E92E0992E80912C0E909194
:103DC0002D0E800F911FB6010E9400212BEA32E0D8
:103DD0000331110511F42AEA32E03F932F93FC01DD
:103DE000EE0FFF1FEE0FFF1FE452F24F83818F9300
:103DF00082818F9381818F9380818F939F928F9205
:103E0000C701825B9B4F9F938F930E94AB22E80E6A
:103E1000F91E0F5F1F4F0FB6F894DEBF0FBECDBF68
:103E20000431110551F66EEF72E0C701825B9B4FC2
:103E30000E948722C70102960E945D130FCDF0FEFB
:103E40000DCD60E090E080E00FCF46E050E061E013
:103E500073E0C7010E948E22892B39F468E073E079
:103E600082E193E00E94DD14F9CC4EE050E061E283
:103E700073E0C7010E948E22892B29F468E073E069
:103E800080E393E0EFCF4EE050E06FE373E0C701D3
:103E90000E948E22892B29F468E073E08EE493E07F
:103EA000E1CF4EE050E06DE573E0C7010E948E2245
:103EB000892B29F468E073E08CE693E0D3CF42E1EC
:103EC00050E06BE773E0C7010E948E22892B29F432
:103ED0006EE873E080E893E0C5CF4EE050E067E91C
:103EE00073E0C7010E948E22892B29F466EA73E0F1
:103EF0008CE993E0B7CF90E080E09ECF09321105C6
:103F000009F4ACCC8111AACC80912604853409F047
:103F1000A5CC44E050E063E47EE086E394E00E94B8
:103F20006F22892BA9F044E050E061EF73E086E353
:103F300094E00E946F22892B59F044E050E06CE439
:103F400072E086E394E00E946F22892B09F086CC10
:103F500080912F04813009F048CE80913A04883056
:103F600009F07CCC0E94271310923A0480913C0403
:103F7000883F28F090913D049F5F90933D04885FB7
:103F800080933C04C8010E94701068CCFB01DC01E6
:103F900002C005900D9241505040D8F708950E94FC
:103FA000D61F6894B1110C94652008950E944A2090
:103FB00088F09F5798F0B92F9927B751B0F0E1F0EA
:103FC000660F771F881F991F1AF0BA95C9F714C09A
:103FD000B13091F00E946420B1E008950C94642007
:103FE000672F782F8827B85F39F0B93FCCF38695D3
:103FF00077956795B395D9F73EF490958095709530
:1040000061957F4F8F4F9F4F0895E89409C097FBAC
:104010003EF490958095709561957F4F8F4F9F4F9F
:104020009923A9F0F92F96E9BB279395F6958795E3
:1040300077956795B795F111F8CFFAF4BB0F11F4A6
:1040400060FF1BC06F5F7F4F8F4F9F4F16C088234D
:1040500011F096E911C0772321F09EE8872F762F83
:1040600005C0662371F096E8862F70E060E02AF0C4
:104070009A95660F771F881FDAF7880F96958795B0
:1040800097F9089557FD9058440F551F59F05F3F19
:1040900071F04795880F97FB991F61F09F3F79F06A
:1040A00087950895121613061406551FF2CF4695EC
:1040B000F1DF08C0161617061806991FF1CF86956E
:1040C0007105610508940895E894BB276627772752
:1040D000CB0197F908950E947E200C94EF200E9456
:1040E000E12038F00E94E82020F0952311F00C9494
:1040F000D8200C94DE2011240C9465200E944220CC
:1041000070F3959FC1F3950F50E0551F629FF0012A
:10411000729FBB27F00DB11D639FAA27F00DB11D43
:10412000AA1F649F6627B00DA11D661F829F2227CC
:10413000B00DA11D621F739FB00DA11D621F839F53
:10414000A00D611D221F749F3327A00D611D231F29
:10415000849F600D211D822F762F6A2F11249F5777
:1041600050409AF0F1F088234AF0EE0FFF1FBB1F7A
:10417000661F771F881F91505040A9F79E3F510539
:1041800080F00C94D8200C9465205F3FE4F3983EB7
:10419000D4F3869577956795B795F795E7959F5FE3
:1041A000C1F7FE2B880F911D9695879597F9089575
:1041B00097F99F6780E870E060E008959FEF80ECDA
:1041C000089500240A94161617061806090608957D
:1041D00000240A9412161306140605060895092EE3
:1041E0000394000C11F4882352F0BB0F40F4BF2B52
:1041F00011F460FF04C06F5F7F4F8F4F9F4F089592
:1042000097FB072E16F4009407D077FD09D00E9483
:10421000272107FC05D03EF4909581959F4F089586
:10422000709561957F4F0895EE0FFF1F881F8BBF1C
:104230000790F691E02D19940E943B21A59F900DC7
:10424000B49F900DA49F800D911D11240895AA1B69
:10425000BB1B51E107C0AA1FBB1FA617B70710F071
:10426000A61BB70B881F991F5A95A9F780959095A3
:10427000BC01CD010895A29FB001B39FC001A39FCF
:10428000700D811D1124911DB29F700D811D11248F
:10429000911D08950F931F93CF93DF938230910563
:1042A00010F482E090E0E0913411F091351130E0AB
:1042B00020E0B0E0A0E0309799F42115310509F431
:1042C0004AC0281B390B24303105D8F58A819B81DF
:1042D0006115710589F1FB0193838283FE0111C091
:1042E000408151810281138148175907E0F0481736
:1042F000590799F4109761F012960C931297139640
:104300001C933296CF01DF91CF911F910F910895A9
:104310000093341110933511F4CF2115310551F06C
:104320004217530738F0A901DB019A01BD01DF01F3
:10433000F801C1CFEF01F9CF90933511809334117B
:10434000CDCFFE01E20FF31F8193919322503109EB
:1043500039832883D7CF2091321130913311232B09
:1043600041F420913602309137023093331120937B
:10437000321120913402309135022115310541F47A
:104380002DB73EB74091380250913902241B350BAE
:10439000E0913211F0913311E217F307A0F42E1BD4
:1043A0003F0B2817390778F0AC014E5F5F4F241799
:1043B000350748F04E0F5F1F509333114093321171
:1043C000819391939FCFF0E0E0E09CCFCF93DF9378
:1043D0000097E9F0FC01329713821282A091341108
:1043E000B0913511ED0130E020E01097A1F420816B
:1043F0003181820F931F2091321130913311281790
:10440000390709F061C0F0933311E0933211DF9165
:10441000CF910895EA01CE17DF07E8F54A815B8165
:104420009E0141155105B1F7E901FB83EA834991EA
:104430005991C40FD51FEC17FD0761F4808191815C
:104440000296840F951FE901998388838281938165
:104450009B838A83F0E0E0E012968D919C91139704
:104460000097B9F52D913C911197CD010296820FDD
:10447000931F20913211309133112817390739F6E3
:10448000309751F51092351110923411B0933311C9
:10449000A0933211BCCFD383C28340815181840F5A
:1044A000951FC817D90761F44E5F5F4F88819981C6
:1044B000480F591F518340838A819B819383828354
:1044C0002115310509F0B0CFF0933511E093341187
:1044D0009ECFFD01DC01C0CF13821282D7CFFB013A
:1044E000DC0104C08D910190801921F441505040AD
:1044F000C8F7881B990B0895FC018191861721F05C
:104500008823D9F7992708953197CF010895FB01A2
:10451000DC0101900D920020E1F70895FB01DC0120
:104520004150504030F08D910190801919F40020D5
:10453000B9F7881B990B0895FB01DC0141505040ED
:1045400048F001900D920020C9F701C01D92415022
:104550005040E0F708950F931F93CF93DF93CDB7AB
:10456000DEB72E970FB6F894DEBF0FBECDBF0E8913
:104570001F8986E08C831A8309838FEF9FE79E83D0
:104580008D83AE01465E5F4F688D798DCE010196B9
:104590000E94DB222F813885020F131FF801108241
:1045A0002E960FB6F894DEBF0FBECDBFDF91CF9130
:1045B0001F910F9108952F923F924F925F926F92A9
:1045C0007F928F929F92AF92BF92CF92DF92EF92A3
:1045D000FF920F931F93CF93DF9300D000D000D0B2
:1045E0001F921F92CDB7DEB77C013B018A01FC010F
:1045F00017821682838181FFDDC1CE0101965C01A5
:10460000F7019381F30193FD859193FF81913F0120
:10461000882309F453C1853239F493FD859193FFC2
:1046200081913F01853229F4B70190E00E94F32483
:10463000E7CF912C212C312CFFE1F31538F08B3290
:1046400011F190F4803209F1833229F137FC3CC03A
:1046500020ED280F2A3050F536FE20C08AE0989EC3
:10466000200D1124922E06C08D3291F0803371F707
:10467000689430F8F30193FD859193FF81913F0198
:104680008111DACF21C0689431F8689432F8F2CF02
:10469000689433F8EFCF689434F8ECCFEAE02E9EBC
:1046A000200D1124222E689435F8E4CF8E3229F49F
:1046B00036FC04C1689436F8DDCF8C3619F4689462
:1046C00037F8D8CF8836B1F2982F9F7D9554933024
:1046D000E0F08336A1F18337C1F1833509F063C07F
:1046E0002801F2E04F0E511CF801C080D180692DE5
:1046F00070E036FC02C06FEF7FEFC6010E94DD2440
:104700004C01689437F882010AC00C5F1F4FFFE329
:10471000F98388248394912C6501E89437F833FE5B
:104720002DC0522C8114910471F5552009F468CFE5
:10473000B70180E290E00E94F3245A94F6CFF8018A
:10474000808189830E5F1F4FE4CF2801F2E04F0E76
:10475000511CF801C080D180692D70E036FC02C088
:104760006FEF7FEFC6010E94E8244C018201D5CF94
:10477000B70180E290E00E94F3242A9428141904DF
:1047800009F0B0F7CECFF60137FC859137FE819165
:104790006F01B70190E00E94F32451105A94F1E0A8
:1047A0008F1A9108BFCF843619F0893609F077C087
:1047B000F80137FE6BC060817181828193810C5F4B
:1047C0001F4FF32DFF763F2E97FF09C090958095E0
:1047D000709561957F4F8F4F9F4F689437F82AE00F
:1047E00030E0A5010E942325C82ECA188C2C432C2A
:1047F00036FE0CC0E89440F8C91440F434FE05C0FD
:1048000032FC03C0F32DFE7E4F2E892C44FEAAC03D
:10481000FE01EC0DF11D8081803309F09CC0242D38
:10482000297E422E842D8870582E43FCAAC040FE5B
:10483000A4C09C2C821418F42C0C922C981844FEC2
:10484000A6C0B70180E390E00E94F32442FE09C0B5
:1048500088E790E041FE02C088E590E0B7010E9441
:10486000F324C91408F49FC0CA94D12C9FEFC91A2D
:10487000D90ACA0CDB1CF60182916F01B70190E0E6
:104880000E94F324AC14BD04B1F74FCF6081718155
:10489000072E000C880B990B0E5F1F4F92CFD32C65
:1048A000E894D4F82AE030E08537E1F1232D297F20
:1048B000D22E8F36A9F1F0F4883551F1F7018681B7
:1048C00097812B960FB6F894DEBF0FBECDBFDF9158
:1048D000CF911F910F91FF90EF90DF90CF90BF90FD
:1048E000AF909F908F907F906F905F904F903F9090
:1048F0002F900895803749F0883701F7D4FE02C021
:104900006894D2F820E130E00DC06894D4F8F6CF76
:1049100034FE03C0822F8660D82E20E132E002C030
:1049200028E030E0F801D7FE0FC0608171818281FC
:1049300093810C5F1F4FA5010E942325C82ECA1822
:104940003D2CE89437F852CF6081718190E080E08F
:104950000E5F1F4FF0CF42FC02C0839463CF83945D
:10496000839460CF842D867809F45CCFF6CFB701AD
:1049700080E290E00E94F32483948214C0F3512CCF
:104980005ECF522C5818821408F459CFF8CF842DDA
:10499000867809F466CF8BE241FE80E247FC8DE227
:1049A000B70190E05CCFB70180E390E00E94F32470
:1049B0009A9457CF8FEF9FEF84CFFC010590615001
:1049C00070400110D8F7809590958E0F9F1F089525
:1049D000FC016150704001900110D8F780959095CE
:1049E0008E0F9F1F08950F931F93CF93DF93182F60
:1049F000092FEB018B8181FD09C01FEF0FEF812F84
:104A0000902FDF91CF911F910F91089582FF14C0D5
:104A10002E813F818C819D81281739073CF4E881E4
:104A2000F981CF0101969983888310838E819F81BC
:104A300001969F838E83E3CFE885F985812F1995B1
:104A4000892BA1F3DACFFA01AA27283051F12031BE
:104A500081F1E8946F936E7F6E5F7F4F8F4F9F4F12
:104A6000AF4FB1E03ED0B4E03CD0670F781F891F54
:104A70009A1FA11D680F791F8A1F911DA11D6A0F22
:104A8000711D811D911DA11D20D009F468943F91D5
:104A90002AE0269F11243019305D3193DEF6CF01D4
:104AA0000895462F4770405D4193B3E00FD0C9F79A
:104AB000F6CF462F4F70405D4A3318F0495D31FD07
:104AC0004052419302D0A9F7EACFB4E0A69597955A
:104AD000879577956795BA95C9F700976105710530
:104AE00008959B01AC010A2E06945795479537957A
:104AF0002795BA95C9F7620F731F841F951FA01DD4
:104B00000895F894FFCF41726475696E6F2D454E1C
:104B10004332386A36302D3030000000000000008B
:104B2000000000000000A9FE874FA9FEEED87469BE
:104B3000692D30310A01FFFFFFFF000036118000B0
:104B400000000000C80DAB0D9B0D720D7B0DFD0E1E
:104B5000070FFFFFFFFFFFFF0000000033039D0270
:104B6000CA028003FB02D902ED0200000000110D11
:104B70009D020B0BD30F2F00485454502F312E3071
:104B800020323030204F4B0D0A436F6E74656E74C7
:104B90002D547970653A2025730D0A436F6E6E654A
:104BA0006374696F6E3A20636C6F73650D0A0D0A4A
:104BB000002C00534420696E69742E2E2E20004F65
:104BC0004B004641494C005765622073657276651B
:104BD00072207374617274656400474554202F64B9
:104BE000617461007B2263757272656E74223A256E
:104BF0006C642C2276616C756573223A5B00256CBF
:104C0000642573005D7D00474554202F20007465A6
:104C100078742F68746D6C0068746D6C2F696E64A5
:104C200065782E68746D00474554202F7061676564
:104C3000322E68746D0068746D6C2F706167653218
:104C40002E68746D00474554202F70616765332EC0
:104C500068746D0068746D6C2F70616765332E68C1
:104C6000746D00474554202F70616765342E687459
:104C70006D0068746D6C2F70616765342E68746D9B
:104C800000474554202F6373732F7374796C652E1E
:104C900063737300746578742F63737300474554AE
:104CA000202F6A732F6170702E6A73006170706CB0
:104CB00069636174696F6E2F6A617661736372698B
:044CC000707400000C
:020000040003F7
:10E000000D9489F10D94B2F10D94B2F10D94B2F129
:10E010000D94B2F10D94B2F10D94B2F10D94B2F1F0
:10E020000D94B2F10D94B2F10D94B2F10D94B2F1E0
:10E030000D94B2F10D94B2F10D94B2F10D94B2F1D0
:10E040000D94B2F10D94B2F10D94B2F10D94B2F1C0
:10E050000D94B2F10D94B2F10D94B2F10D94B2F1B0
:10E060000D94B2F10D94B2F10D94B2F10D94B2F1A0
:10E070000D94B2F10D94B2F10D94B2F10D94B2F190
:10E080000D94B2F10D94B2F10D94B2F10D94B2F180
:10E090000D94B2F10D94B2F10D94B2F10D94B2F170
:10E0A0000D94B2F10D94B2F10D94B2F10D94B2F160
:10E0B0000D94B2F10D94B2F10D94B2F10D94B2F150
:10E0C0000D94B2F10D94B2F10D94B2F10D94B2F140
:10E0D0000D94B2F10D94B2F10D94B2F10D94B2F130
:10E0E0000D94B2F141546D656761323536300041AF
:10E0F000726475696E6F206578706C6F72657220DE
:10E1000073746B3530305632206279204D4C530099
:10E11000426F6F746C6F616465723E004875683F52
:10E1200000436F6D70696C6564206F6E203D200048
:10E130004350552054797065202020203D20005FF9
:10E140005F4156525F415243485F5F3D2000415658
:10E1500052204C696243205665723D20004743437C
:10E160002056657273696F6E203D20004350552024
:10E1700049442020202020203D20004C6F7720663D
:10E18000757365202020203D20004869676820665F
:10E190007573652020203D200045787420667573D6
:10E1A00065202020203D20004C6F636B2066757336
:10E1B000652020203D20004D617220203720323024
:10E1C000313300312E362E3800342E332E350056A2
:10E1D00023202020414444522020206F7020636F70
:10E1E00064652020202020696E73747275637469E1
:10E1F0006F6E2061646472202020496E74657272B3
:10E20000757074006E6F20766563746F7200726A49
:10E210006D702020006A6D70200057686174207056
:10E220006F72743A00506F7274206E6F7420737541
:10E2300070706F72746564004D7573742062652030
:10E2400061206C6574746572002000577269747483
:10E25000696E672045450052656164696E672045B7
:10E26000450045452065727220636E743D00504F35
:10E27000525400303D5A65726F2061646472003FF1
:10E280003D43505520737461747300403D454550C3
:10E29000524F4D207465737400423D426C696E6B41
:10E2A000204C454400453D44756D70204545505215
:10E2B0004F4D00463D44756D7020464C415348001B
:10E2C000483D48656C70004C3D4C69737420492F83
:10E2D0004F20506F72747300513D51756974005234
:10E2E0003D44756D702052414D00563D73686F7707
:10E2F00020696E7465727275707420566563746FF0
:10E30000727300593D506F727420626C696E6B00BD
:10E310002A0011241FBECFEFD1E2DEBFCDBF01E046
:10E320000CBF12E0A0E0B2E0EEE1FDEF03E00BBFB6
:10E3300002C007900D92A030B107D9F712E0A0E01B
:10E34000B2E001C01D92AE30B107E1F70F9460F367
:10E350000D948DFE01E20EBF0FEF0DBF11241FBE05
:10E360000D9460F30D9400F020E030E040ED57E0B4
:10E3700005C0FA013197F1F72F5F3F4F2817390792
:10E38000C0F308959C01260F311DC901A0E0B0E043
:10E390002F5F3F4FABBFFC018791882361F08093D3
:10E3A000C6008091C00086FFFCCF8091C0008064D1
:10E3B0008093C000EACF08958DE08093C6008091DD
:10E3C000C00086FFFCCF8091C00080648093C000B5
:10E3D0008AE08093C6008091C00086FFFCCF8091C8
:10E3E000C00080648093C00008950F94C2F10F9420
:10E3F000DCF10895FC019081992359F09093C600B7
:10E400008091C00086FFFCCF8091C0008064809323
:10E41000C0003196992379F70895282F982F929567
:10E420009F70892F805D8A3308F0895F8093C600D2
:10E430008091C00086FFFCCF8091C00080648093F3
:10E44000C000822F8F70982F905D9A3308F0995FEB
:10E450009093C6008091C00086FFFCCF8091C000E1
:10E4600080648093C00008959C01FB01853691056E
:10E470001CF46330710594F0C90164E670E00F94F8
:10E480002EFE605D7F4F6093C6008091C00086FFC6
:10E49000FCCF8091C00080648093C0002B30310598
:10E4A00014F43297B4F0C90164E670E00F942EFEC4
:10E4B0006AE070E00F942EFE605D7F4F6093C600AF
:10E4C0008091C00086FFFCCF8091C0008064809363
:10E4D000C000C9016AE070E00F942EFEC0968093E0
:10E4E000C6008091C00086FFFCCF8091C000806490
:10E4F0008093C00008951F93182F8EE692EE60E07F
:10E500000F94C2F11093C6008091C00086FFFCCF2B
:10E510008091C00080648093C0000F94DCF11F9153
:10E5200008952F923F924F925F926F927F928F92B7
:10E530009F92AF92BF92CF92DF92EF92FF920F9392
:10E540001F93DF93CF93CDB7DEB762970FB6F894E2
:10E55000DEBF0FBECDBF382E622ECA01DB015C01CB
:10E560006D01772420E2222E2E010894411C511CBB
:10E570008BC081E0A81680E0B80681E0C80680E084
:10E58000D80628F0C601AA27BB270F940DF2BB2797
:10E59000AD2D9C2D8B2D0F940DF28A2D0F940DF225
:10E5A0002092C6008091C00086FFFCCF8091C00001
:10E5B00080648093C0009DE29093C6008091C0006B
:10E5C00086FFFCCF8091C00080648093C0002092C1
:10E5D000C6008091C00086FFFCCF8091C00080649F
:10E5E0008093C00019828601750188249924A1E0D6
:10E5F0003A1651F03A1620F0B2E03B1661F409C029
:10E600000BBFF701779007C0C7010F9477FE782EF4
:10E6100002C0F7017080872D0F940DF22092C60082
:10E620008091C00086FFFCCF8091C0008064809301
:10E63000C000872D8052F401EF70F0708F3520F408
:10E64000E40DF51D708204C0E40DF51D8EE280839B
:10E650000894E11CF11C011D111D0894811C911CE2
:10E6600090E18916910409F0C2CF80E190E0A0E02A
:10E67000B0E0A80EB91ECA1EDB1E198AC2010F9493
:10E68000FAF10F94DCF16A94662009F072CF629679
:10E690000FB6F894DEBF0FBECDBFCF91DF911F91B3
:10E6A0000F91FF90EF90DF90CF90BF90AF909F9031
:10E6B0008F907F906F905F904F903F902F90089534
:10E6C0002F923F924F925F926F927F928F929F9282
:10E6D000AF92BF92CF92DF92EF92FF920F931F9370
:10E6E000DF93CF93CDB7DEB7CD53D1400FB6F894BB
:10E6F000DEBF0FBECDBF01E20EBF0FEF0DBF94B75F
:10E70000F894A89514BE80916000886180936000A1
:10E7100010926000789493FF05C0E0910002F091A0
:10E7200001021995279A2F9A8091C00082608093E8
:10E73000C00080E18093C40088E18093C1000000A4
:10E74000EE24FF24870144E0A42EB12CCC24DD2448
:10E7500024C0C5010197F1F70894E11CF11C011DCB
:10E76000111D21E2E2162EE4F20620E0020720E06D
:10E77000120718F031E0C32ED12CC801B70127ECE5
:10E780003BE140E050E00F9441FE611571058105C9
:10E79000910519F485B1805885B98091C00087FD35
:10E7A00003C0C114D104A9F2A6014F5F5F4FC25E3E
:10E7B000DE4F59834883CE51D140C25EDE4F8881FF
:10E7C0009981CE51D140019711F00D9410FEC05D9A
:10E7D000DE4F19821882C053D14060E0C15DDE4F28
:10E7E0001882CF52D14088249924C35DDE4F19820C
:10E7F0001882CD52D140C05EDE4F188219821A8233
:10E800001B82C052D140CE5CDE4F188219821A8220
:10E810001B82C253D140EE24FF2487010BBFF701B6
:10E8200007911691C45CDE4F19830883CC53D14005
:10E830000D940BFEC25EDE4F28813981CE51D1404E
:10E840002130310509F52091C600C25EDE4F1982E4
:10E850001882CE51D14022C02F5F3F4F4F4F5F4FA4
:10E86000213082E138078AE7480780E0580780F0C6
:10E87000C45CDE4FE881F981CC53D140EF5FFF4F9C
:10E8800019F0EE27FF27099420E030E040E050E047
:10E890008091C00087FFE0CF2091C600C35DDE4FAE
:10E8A00048815981CD52D1404F5F5F4FC35DDE4FEC
:10E8B00059834883CD52D140213209F063C64A3092
:10E8C000510508F05FC60894811C911C53E0851621
:10E8D000910409F059C600E010E018C081E280936D
:10E8E000C6008091C00086FFFCCF8091C00080648C
:10E8F0008093C0002F5F3F4F2931310579F70F9486
:10E90000DCF10F5F1F4F0530110519F020E030E0FA
:10E91000E5CF10920A0210920B0210920C02109294
:10E920000D02109206021092070210920802109235
:10E930000902109202021092030210920402109235
:10E9400005028FEE90EE60E00F94F5F180E191EE1C
:10E9500060E00F94C2F18091C00087FFFCCF9091DE
:10E96000C600903608F09F759032B8F09093C600BC
:10E970008091C00086FFFCCF8091C00080648093AE
:10E98000C000A0E2A093C6008091C00086FFFCCF2B
:10E990008091C00080648093C000983409F4D7C18E
:10E9A0009934B8F4923409F459C1933458F490333B
:10E9B00019F1903308F4E3C59F33A1F1903409F0C5
:10E9C000DEC5BDC0953409F470C1963409F0D7C5D1
:10E9D00098C1923509F42BC2933538F49C3409F46C
:10E9E000F5C1913509F0CBC518C2963509F445C279
:10E9F000993509F0C4C567C483E792EE62E00F94CD
:10EA0000F5F110920602109207021092080210927D
:10EA1000090210920A0210920B0210920C0210923C
:10EA20000D0213C18FE792EE62E00F94F5F18FEEC5
:10EA300090EE60E00F94F5F181E291EE60E00F94CA
:10EA4000C2F187EB91EE60E00F94F5F180E391EE77
:10EA500060E00F94C2F184EE90EE60E00F94F5F167
:10EA60008FE391EE60E00F94C2F186E090E061E008
:10EA700070E00F9434F20F94DCF18DE591EE60E0DC
:10EA80000F94C2F189EC91EE60E00F94F5F18EE401
:10EA900091EE60E00F94C2F183EC91EE60E00F9490
:10EAA000F5F18CE691EE60E00F94C2F18EE10F94E7
:10EAB0000DF288E90F940DF281E00F940DF20F949E
:10EAC000DCF18BE791EE60E00F94C2F119E0E0E039
:10EAD000F0E010935700E4918E2F0F940DF20F94F5
:10EAE000DCF18AE891EE60E00F94C2F1E3E0F0E03F
:10EAF00010935700E4918E2F0F940DF20F94DCF1D8
:10EB000089E991EE60E00F94C2F1E2E0F0E0109349
:10EB10005700E4918E2F0F940DF20F94DCF188EAE8
:10EB200091EE60E00F94C2F1E1E0F0E01093570045
:10EB30001491812F0F940DF20F94DCF107CF8BE825
:10EB400092EE62E00F94F5F18BE492EE60E00F94A8
:10EB5000F5F10F94DCF100E010E019C0C8016F2D51
:10EB60000F947FFEFF2031F489E492EE60E00F9471
:10EB7000C2F10BC0F092C6008091C00086FFFCCFAE
:10EB80008091C00080648093C0000F5F1F4FC80158
:10EB900081519F41A0E0B0E0ABBFFC01F790BAE229
:10EBA000FB1621F0E2E000301E07C1F60F94DCF105
:10EBB0000F94DCF187E592EE60E00F94F5F10F948D
:10EBC000DCF1CC24DD2400E010E01EC0C8010F946D
:10EBD00077FEF82E882331F489E492EE60E00F94FA
:10EBE000C2F10BC08093C6008091C00086FFFCCFAD
:10EBF0008091C00080648093C000FE1419F00894D6
:10EC0000C11CD11C0F5F1F4FC80181519F41A0E063
:10EC1000B0E0ABBFFC01E790FAE2EF1621F022E092
:10EC20000030120799F60F94DCF10F94DCF182E6C4
:10EC300092EE60E00F94C2F1C60161E070E00F94C3
:10EC400034F20F94DCF10F94DCF110920202109276
:10EC50000302109204021092050278CE89E992EE26
:10EC600062E00F94F5F1279A2F9A16C02F9880E052
:10EC700090E0E0EDF7E03197F1F7019684369105E9
:10EC8000C1F72F9A80E090E0E0EDF7E03197F1F7DF
:10EC9000019684369105C1F78091C00087FFE6CFC9
:10ECA0008091C00087FFFCCF64C485EA92EE62E0E9
:10ECB0000F94F5F140910202509103026091040219
:10ECC0007091050281E020E10F9491F2809102029F
:10ECD00090910302A0910402B091050280509F4FD1
:10ECE000AF4FBF4F8093020290930302A0930402A0
:10ECF000B093050280509041A040B04008F426CE69
:10ED0000A4CF83EB92EE62E00F94F5F140910602FE
:10ED100050910702609108027091090280E020E1A1
:10ED20000F9491F28091060290910702A09108023F
:10ED3000B091090280509F4FAF4FBF4F80930602A2
:10ED400090930702A0930802B0930902FFCD80ECD4
:10ED500092EE62E00F94F5F183E792EE60E00F949B
:10ED6000F5F18FE792EE60E00F94F5F18BE892EE0B
:10ED700060E00F94F5F189E992EE60E00F94F5F10F
:10ED800085EA92EE60E00F94F5F183EB92EE60E09D
:10ED90000F94F5F180EC92EE60E00F94F5F187ECC2
:10EDA00092EE60E00F94F5F188ED92EE60E00F9442
:10EDB000F5F18FED92EE60E00F94F5F18AEE92EEB0
:10EDC00060E00F94F5F183E093EEBDCD87EC92EE19
:10EDD00062E00F94F5F181E40F947BF282E40F94EA
:10EDE0007BF283E40F947BF284E40F947BF285E45E
:10EDF0000F947BF286E40F947BF287E40F947BF20E
:10EE000088E40F947BF28AE40F947BF28BE40F94F6
